:020000000000fe
:020001000003fa
:020002000006f6
:020003000009f2
:02000400000ded
:020005000010e9
:020006000013e5
:020007000016e1
:020008000019dd
:02000900001cd9
:02000a00001fd5
:02000b000022d1
:02000c000026cc
:02000d000029c8
:02000e00002cc4
:02000f00002fc0
:020010000032bc
:020011000035b8
:020012000038b4
:02001300003bb0
:02001400003fab
:020015000042a7
:020016000045a3
:0200170000489f
:02001800004b9b
:02001900004e97
:02001a00005193
:02001b0000548f
:02001c0000578b
:02001d00005a87
:02001e00005e82
:02001f0000617e
:0200200000647a
:02002100006776
:02002200006a72
:02002300006d6e
:0200240000706a
:02002500007366
:02002600007662
:0200270000795e
:02002800007c5a
:02002900007f56
:02002a00008252
:02002b0000854e
:02002c0000884a
:02002d00008b46
:02002e00008e42
:02002f0000913e
:0200300000943a
:02003100009736
:02003200009a32
:02003300009d2e
:0200340000a02a
:0200350000a326
:0200360000a622
:0200370000a91e
:0200380000ac1a
:0200390000af16
:02003a0000b212
:02003b0000b50e
:02003c0000b80a
:02003d0000bb06
:02003e0000be02
:02003f0000c1fe
:0200400000c4fa
:0200410000c6f7
:0200420000c9f3
:0200430000ccef
:0200440000cfeb
:0200450000d2e7
:0200460000d5e3
:0200470000d8df
:0200480000dadc
:0200490000ddd8
:02004a0000e0d4
:02004b0000e3d0
:02004c0000e6cc
:02004d0000e9c8
:02004e0000ebc5
:02004f0000eec1
:0200500000f1bd
:0200510000f4b9
:0200520000f6b6
:0200530000f9b2
:0200540000fcae
:0200550000ffaa
:020056000101a6
:020057000104a2
:0200580001079e
:0200590001099b
:02005a00010c97
:02005b00010f93
:02005c00011190
:02005d0001148c
:02005e00011788
:02005f00011985
:02006000011c81
:02006100011e7e
:0200620001217a
:02006300012476
:02006400012673
:0200650001296f
:02006600012b6c
:02006700012e68
:02006800013065
:02006900013361
:02006a0001355e
:02006b0001385a
:02006c00013a57
:02006d00013d53
:02006e00013f50
:02006f0001424c
:02007000014449
:02007100014745
:02007200014942
:02007300014b3f
:02007400014e3b
:02007500015038
:02007600015235
:02007700015531
:0200780001572e
:0200790001592b
:02007a00015c27
:02007b00015e24
:02007c00016021
:02007d0001631d
:02007e0001651a
:02007f00016717
:00000001FF
