:0200000001fffe
:0200010001fffd
:0200020001fffc
:0200030001fffb
:0200040001fffa
:0200050001fff9
:0200060001fff8
:0200070001fff7
:0200080001fef7
:0200090001fef6
:02000a0001fef5
:02000b0001fef4
:02000c0001fef3
:02000d0001fdf3
:02000e0001fdf2
:02000f0001fdf1
:0200100001fdf0
:0200110001fcf0
:0200120001fcef
:0200130001fcee
:0200140001fbee
:0200150001fbed
:0200160001faed
:0200170001faec
:0200180001f9ec
:0200190001f9eb
:02001a0001f9ea
:02001b0001f8ea
:02001c0001f7ea
:02001d0001f7e9
:02001e0001f6e9
:02001f0001f6e8
:0200200001f5e8
:0200210001f5e7
:0200220001f4e7
:0200230001f3e7
:0200240001f3e6
:0200250001f2e6
:0200260001f1e6
:0200270001f0e6
:0200280001f0e5
:0200290001efe5
:02002a0001eee5
:02002b0001ede5
:02002c0001ece5
:02002d0001ece4
:02002e0001ebe4
:02002f0001eae4
:0200300001e9e4
:0200310001e8e4
:0200320001e7e4
:0200330001e6e4
:0200340001e5e4
:0200350001e4e4
:0200360001e3e4
:0200370001e2e4
:0200380001e1e4
:0200390001e0e4
:02003a0001dfe4
:02003b0001dee4
:02003c0001dde4
:02003d0001dce4
:02003e0001dae5
:02003f0001d9e5
:0200400001d8e5
:0200410001d7e5
:0200420001d6e5
:0200430001d4e6
:0200440001d3e6
:0200450001d2e6
:0200460001d1e6
:0200470001cfe7
:0200480001cee7
:0200490001cde7
:02004a0001cbe8
:02004b0001cae8
:02004c0001c8e9
:02004d0001c7e9
:02004e0001c6e9
:02004f0001c4ea
:0200500001c3ea
:0200510001c1eb
:0200520001c0eb
:0200530001beec
:0200540001bdec
:0200550001bbed
:0200560001b9ee
:0200570001b8ee
:0200580001b6ef
:0200590001b5ef
:02005a0001b3f0
:02005b0001b1f1
:02005c0001b0f1
:02005d0001aef2
:02005e0001acf3
:02005f0001abf3
:0200600001a9f4
:0200610001a7f5
:0200620001a5f6
:0200630001a4f6
:0200640001a2f7
:0200650001a0f8
:02006600019ef9
:02006700019cfa
:02006800019afb
:020069000199fb
:02006a000197fc
:02006b000195fd
:02006c000193fe
:02006d000191ff
:02006e00018f00
:02006f00018d01
:02007000018b02
:02007100018903
:02007200018704
:02007300018505
:02007400018306
:02007500018107
:02007600017f08
:02007700017d09
:02007800017b0a
:0200790001790b
:02007a0001760d
:02007b0001740e
:02007c0001720f
:02007d00017010
:02007e00016e11
:02007f00016c12
:00000001FF
